:0200000400807A
:10E000000500010193270000000100006D67DEF1AB
:10E010003E33E811B1024D2DF40CDE0100E4800026
:10E0200000E480000000000000E08000000000002C
:10E0300000000000000000000000000000000000E0
:10E0400000000000000000000000000000000000D0
:10E0500000000000000000000000000000000000C0
:10E0600001300038904DD56A73646B23232323233A
:10E0700000000000000000000000000000000000A0
:10E080000000000000000000000000000000000090
:10E090000000000000000000000000000000000080
:10E0A0000000000000000000000000000000000070
:10E0B0000000000000000000000000000000000060
:10E0C0000000000000000000000000000000000050
:10E0D0000000000000000000000000000000000040
:10E0E0000000000000000000000000000000000030
:10E0F0000000000000000000000000000000000020
:10E10000000000000000000000000000000000000F
:10E1100000000000000000000000000000000000FF
:10E1200000000000000000000000000000000000EF
:10E1300000000000000000000000000000000000DF
:10E1400000000000000000000000000000000000CF
:10E1500000000000000000000000000000000000BF
:10E1600000000000000000000000000000000000AF
:10E17000000000000000000000000000000000009F
:10E18000000000000000000000000000000000008F
:10E19000000000000000000000000000000000007F
:10E1A000000000000000000000000000000000006F
:10E1B000000000000000000000000000000000005F
:10E1C000000000000000000000000000000000004F
:10E1D000000000000000000001D1850E60A2820056
:10E1E000000000000000000000000000000000002F
:10E1F000000000000000000000000000000000001F
:10E20000000000000000000000000000000000000E
:10E2100000000000000000000000000000000000FE
:10E40000004800477DE5800000F002F800F03FF88A
:10E410000AA090E8000C82448344AAF10107DA457F
:10E4200001D100F034F8AFF2090EBAE80F0013F092
:10E43000010F18BFFB1A43F00103184788D40100ED
:10E44000C8D40100103A24BF78C878C1FAD852075E
:10E4500024BF30C830C144BF04680C60704700005E
:10E460000023002400250026103A28BF78C1FBD8DD
:10E47000520728BF30C148BF0B60704778291AF097
:10E48000FD83002070471FB51BF0DFFE1FBD00F0AD
:10E4900081F91146FFF7F7FF06F090FD4CF4C2F446
:10E4A00010B5604A604961484BF4F7F4604A61492D
:10E4B00061484BF4F2F4614961484BF4AFF5BDE8B3
:10E4C0001040604A604961484BF4E7B470B5604D54
:10E4D0006049614C28684FF00002B1EB002F05D075
:10E4E0002046BDE870405D49F9F7B99A002145F230
:10E4F0000600FDF7BEDD10F0FF0303D057490122EF
:10E500001C3104E028685549030E01225031204691
:10E51000BDE87040F9F7A39A38B572B6FFF7D6FF99
:10E52000FFF7BEFF002008F07FFB162000F0A8F9DF
:10E53000172000F0A5F94AA11F204BF45BF44FF01F
:10E54000055548A12846F9F790DC04464CA1284619
:10E55000F9F78BDC034641493F4802227C31801E9B
:10E560000094F9F77CDAFAF5D1F5484800680028FC
:10E5700003D001B0BDE83040004738BD10B5FEF70C
:10E58000EFD800284CD1AFF26F00414908604249F2
:10E59000404808604FF400104FF4F041C0F8841375
:10E5A0004FF40C41C0F888133C49C0F8CC1390F8E4
:10E5B0004D1321F0080180F84D13062180F84F1308
:10E5C00090F8781341F0260180F8781390F89A13A8
:10E5D00021F0010180F89A1390F8341341F0010101
:10E5E00080F8341390F87A1321F0100141F0C00143
:10E5F00080F87A1390F8C31321F0C00180F8C31398
:10E60000F02180F820133C2180F82113C82180F8E4
:10E610002213FF2180F82313BDE8104000F040B81A
:10E6200010BD0000A8040000F8B98200007C2000A2
:10E6300060010000A0BE8200A8802000040F00003E
:10E640000882200000000000C0C0820000C021003D
:10E65000A880200000746572020310210000800869
:10E6600043000000547565204A616E203239203124
:10E67000303A32313A303320323031390000000044
:10E68000312E302E332E3731000000001082200052
:10E69000380C2000D5E780003C0C20000000F782F9
:10E6A000082000F039B800004FF40011027881F81A
:10E6B0009721427881F89821827881F89921C2784F
:10E6C00081F89A21027981F89B21407981F89C0197
:10E6D00070472A482A49016070474FF40011D1F869
:10E6E000142360F34102C1F8142370474FF4001360
:10E6F000B3F8DC2260F3082261F34B22A3F8DC229A
:10E7000070470A2802D94FF4205000E080024FF4ED
:10E710000011C1F8E80270474FF4001181F8F102CE
:10E7200070474FF4001282F8100382F825137047E7
:10E730004FF4001181F8110370474FF40011A1F854
:10E74000120370474FF40011A1F8260370474FF4ED
:10E75000001181F82F0370474FF40011B1F8DC224B
:10E7600060F34102A1F8DC2270474FF4001383F8F4
:10E77000FD0283F80E1383F82E2370473602200023
:10E78000C62004014FF000501049EFF30582104BF2
:10E790009847FEE770474572726F722120506C6592
:10E7A00061736520696D706C656D656E7420796F3D
:10E7B0007572204953522048616E646C6572206600
:10E7C0006F7220495251202564210A0096E780008B
:10E7D000B179000010B54FF4001090F89B1341F090
:10E7E000800180F89B1390F8DC02C1074FF00450C1
:10E7F00003D029A1F9F7DCD806E02AA1F9F7D8D887
:10E8000003F49FF017F4DDF7BDE8104006F0D6BB27
:10E8100040EA01210120F8F7439D10B54FF40014A0
:10E82000002294F84C1360F3010184F84C13114654
:10E8300045F20200FDF71DDC002805D194F84C13C9
:10E8400021F0030184F84C1310BD0FB410B505ABD3
:10E85000049A4BF45DF010BC5DF814FB6FF00040BF
:10E86000F8F7A79F1A4AD1701A4A1268002A00D0F6
:10E8700010477047184A1268002A00D010477047A6
:10E8800000F01F02012191404009800000F1E020CA
:10E89000C0F8801170470000496E20536F43204D2F
:10E8A0006F6465005741524E494E473A20496E20E9
:10E8B000484349204D6F64652C2077696C6C206E4D
:10E8C0006F742072756E20415050205461736B003C
:10E8D000A8802000088220000C822000F0B54FF4B0
:10E8E00090777B06C0F38166C1F341754FF4A07E3B
:10E8F00040EA0104012A06D0B9426FD071456DD0BB
:10E9000010296BD04BE0A1F1C04CBCF1400C18D0E9
:10E91000B1F1C24F20D0A1F1C04CBCF1100C03D01A
:10E92000DFF8F0C2614524D1D3F80CC24CF0806C02
:10E93000C3F80CC2D3F80CC24CF0006CC3F80CC284
:10E9400027E0D3F80CC24CF0806CC3F80CC2D3F8AB
:10E950000CC24CF0005CF1E7D3F80C4244F0806448
:10E96000C3F80C42D3F80C4244F08054C3F80C4274
:10E9700015E0DFF8A4C261450BD1D3F860C34CF4B5
:10E98000007CC3F860C3D3F848C34CF0100CC3F844
:10E9900048C3B9421DD071451BD0102919D020F0B1
:10E9A000406321F0C0404FEA860101F18041012A15
:10E9B000D1F8102218D09A43C1F81022A90001F111
:10E9C0008041D1F82C22824322EA4000C1F82C0277
:10E9D000F0BDD3F82002204303E0FFE7D3F8200284
:10E9E000A043C3F82002F0BD1A43C1F81022A900C9
:10E9F00001F18041D1F82C22024342EA4000E5E7D0
:10EA0000864B4FF08042984216D1D2F8340220F45F
:10EA10008030C2F83402D2F85C0320F4C010C2F88F
:10EA20005C03D2F85C0340EAC140C2F85C03D2F850
:10EA3000340240F4803018E0794B984217D1D2F874
:10EA4000340220F48020C2F83402D2F85C0320F4AF
:10EA5000C000C2F85C03D2F85C0340EA4150C2F83F
:10EA60005C03D2F8340240F48020C2F834027047CC
:10EA70006C4B9A04984216D1D2F8380220F001006B
:10EA8000C2F83802D2F85C0320F4C030C2F85C034C
:10EA9000D2F85C0340EAC130C2F85C03D2F8380215
:10EAA00040F0010018E0604B984217D1D2F83802CC
:10EAB00020F00400C2F83802D2F85C0320F4C02031
:10EAC000C2F85C03D2F85C0340EA4140C2F85C0340
:10EAD000D2F8380240F00400C2F838027047534BB5
:10EAE0005A04984218D1D2F8340220F00100C2F83A
:10EAF0003402D2F85C0320F4C060C2F85C03D2F8A0
:10EB00005C0340EA4120C2F85C03D2F8340240F0D2
:10EB10000100C2F834027047454B9842FBD1D2F84D
:10EB2000300220F48050C2F83002D2F85C0320F4A6
:10EB3000C050C2F85C03D2F85C0340EAC120C2F8BE
:10EB40005C03D2F8300240F48050C2F830027047C3
:10EB500030B54FF4A0742306C0F341724FF49075A2
:10EB6000012906D0A8421ED0A0421CD010281AD0DD
:10EB700005E0A84213D0A04211D010280FD00129DF
:10EB80004FEA820101F1804120F0C040D1F82C22EF
:10EB90000FD0824322EA4000C1F82C0230BDD3F8E6
:10EBA0002012014302E0D3F820128143C3F820125F
:10EBB00030BD024342EA4000EEE7C0F381624FF00D
:10EBC0008043012906D002281CD004281AD001282D
:10EBD00018D005E0022811D004280FD001280DD04C
:10EBE00001294FEA820101F1804120F04060D1F813
:10EBF00010220DD08243C1F810227047D3F82012A2
:10EC0000014302E0D3F820128143C3F82012704779
:10EC10000243F0E7000001600040002000300140A6
:10EC200000340140005001400054014000200140E8
:10EC300000100140002263494FF48030FFF74EBEC0
:10EC4000614A14230244B2FBF3F2F0B51B07D3F878
:10EC5000604344F40074C3F86043D3F86043640530
:10EC600005D5D3F8604324F48064C3F860430725D6
:10EC7000022A04D2D3F8606302EB420407E0941E38
:10EC8000062C0FD2D3F8606302EB4204E41DA540CA
:10EC9000AE43C3F860638D88A540D3F86043254335
:10ECA000C3F86053032A03D0052A01D0072A10D1E4
:10ECB00091F824500124A71E012DD3F85C53A2F132
:10ECC000010607EB560604FA06F418D0A543C3F86C
:10ECD0005C534C89002C0C8913D00C2545EA440464
:10ECE00084603A4C0D6944F822504C6904608C8D64
:10ECF000012C0CD0022A27D0032A2CD031E0254346
:10ED0000E5E7042545EA44048460CC68EEE74FF467
:10ED10008054022A02D0032A0BD022E00D8E8A6A88
:10ED2000C98D42EA452244EA81210A43C3F864239B
:10ED300017E00D8E8A6AC98D42EA452244EA812194
:10ED40000A43C3F868230CE0D3F8641321F480511C
:10ED5000C3F8641305E0D3F8681321F48051C3F8B5
:10ED60006813C068F0BD0122028140F6FF71C160E6
:10ED70000021818080F824100286C185418181852F
:10ED800070470029816802D041F0010101E021F0C3
:10ED9000010181607047016070470029816802D0DD
:10EDA00021F0040101E041F004018160704710B5D9
:10EDB000054B14240344B3FBF4F30260034840F80A
:10EDC000231010BD0040002000E0FFBFB020004035
:10EDD00010B5C26822F08002C2600022426042691F
:10EDE000826842F006028260C26842F08002C2601D
:10EDF000026A22F0F0020262026A8B8842EA03127F
:10EE00000262C269644B1A40C261C2690B8842EA5D
:10EE10000342C2618A7802604A88120A4260C2686C
:10EE200022F08002C2600A894B891A43CB881A43B8
:10EE3000C260CA89012303EB02220B8A1A43826053
:10EE4000026922F02202026102698B891A4302617F
:10EE50004A8A02640A8A082A1AD1CA8A52B1826A84
:10EE600022F0F8028262826A0B7D022444EAC30324
:10EE70001A4382620A8B002A0AD0826A22F47C52E8
:10EE80008262826A497D042343EA01210A43826245
:10EE900010BD4249884203D10022414941480DE05A
:10EEA0004149884203D100224049801406E040498C
:10EEB000884205D13B4800223E49401CFFF70EBD69
:10EEC0007047142141800C21818040F25221018041
:10EED0000021018141810122C280018281811023B0
:10EEE000C38142820F2303754275C182018370473B
:10EEF00002E0436A01F8013B521E92B2F9D2704718
:10EF000002E011F8013B4362521E92B2F9D27047FF
:10EF10000B060DD5012A13D0036C23F000430364C4
:10EF2000436C43F001034364836C23F00103836467
:10EF30000B0704D0012A426813D08A43426070470D
:10EF4000036A43F008030362036A23F008030362C1
:10EF5000836C43F001038364036C43F00043036458
:10EF6000E6E70A43EAE702460020B1F5807F04D0D5
:10EF700052690A4200D001207047516CC907FAD18A
:10EF800070470129016903D021F010010161704728
:10EF900041F01001FAE70000FFFF00F800200140F7
:10EFA0000100004001000008001001400010002096
:10EFB00000400240000400207FB50446002000907D
:10EFC00001900290039010222146684609F0DCF976
:10EFD0006A46FE491046F9F7F0DE054610226946FA
:10EFE000204609F0D1F904B0284670BD7CB50AF07E
:10EFF0000FF900283FD109F0A1FC04003BD002200A
:10F000002070012060700621A1701021E170FF21A5
:10F0100021715D21A4F80510E0710420A06000209A
:10F02000E060651D42F29270FDF7DCDB006E0107C7
:10F03000C0F3071201EB0251C0F30E3201EB421193
:10F0400001EBD060E249C5F80B00097AC9070AD084
:10F05000D5F80710CDE90010D5F803300322DD49BB
:10F06000DD48F8F7FCDC02B02146BDE87040142210
:10F0700003200AF0A7BE7CBD1FB502208DF80C004E
:10F080006E20ADF80400D0200090D548D34B00226C
:10F0900001A9006816F4A6F7002808D0D320009034
:10F0A000D048CE4B002203A9006816F49BF71FBD81
:10F0B00038B5CD4C606950B9CC480090002301228E
:10F0C00041F28831CAA009F004F9606128B1BDE8B5
:10F0D0003840C548143017F4A1B5BD480078C007C2
:10F0E00007D0BDE83840BB4900225831BA48F8F78C
:10F0F000B69C38BD10B5BC4C6069002805D004F141
:10F10000140017F4C0F50020606110BD2DE9FF5F09
:10F1100000240A46029410218DF80810B24F0A21EB
:10F1200003948DF8091007F12008B7F806C00126EE
:10F13000D8F8043025464FF00709BCF5006F0DD90B
:10F14000BD8002208DF80A00180A8DF80C00180CFA
:10F150008DF80D008DF80B30180E14E0B988DFF82B
:10F1600094A2614504D0D8F81CC00B44634577D104
:10F17000B86938F4FAF268B1BD8005208DF80A004C
:10F18000D8F8040062E0CDE900968DF80E0002ABDD
:10F190000422A3E04FF4001090F8140380060AD56F
:10F1A000B888001B102806DBB8692044FFF704FF6D
:10F1B0001034A4B2F4E787494446012298315046FE
:10F1C000D8F80430F8F74BDCF8F504F6A08961684C
:10F1D000BA88BB69F8F53EF64FF4805A20B3002494
:10F1E0004FF0080BB8F80C00396938F4DBF117F46C
:10F1F0002FF3F861B8F80C004FF48052396938F4F5
:10F20000E4F28246F86917F430F3BAF1000F28D01F
:10F21000641C032CE6D3F8F5F7F5BD803869C8F80F
:10F2200004008DF80AB011E0F8F5EEF5BA88D8F8C8
:10F2300004001044C8F804003969421A524502D348
:10F2400001F580513961BD808DF80A60010A8DF8A1
:10F250000C10010C8DF80B008DF80D10000E92E7CC
:10F2600042E0D8F804003969401AB0F5805F1ED931
:10F2700000243969B8F80C0001F5805138F492F196
:10F2800017F4E6F2F8613969B8F80C004FF48052CF
:10F2900001F5805138F499F28246F86917F4E5F2E5
:10F2A000BAF1000F03D0641C032CE2D3B3E7F8F5E6
:10F2B000ABF5BD803869C8F80400020A8DF80C204F
:10F2C0008DF80A90020C8DF80B008DF80D20000EC1
:10F2D000CDE900968DF80E0002AB0422F9780020EB
:10F2E00040F460F2BDE8FF9F0B463A4900900222CD
:10F2F000B0315046F8F7B3DBBD8006203EE72DE97C
:10F30000F04F8DB0064600200590069007900B78D0
:10F310000D464C1C2F498DF820300222E031354833
:10F320000096F8F79CDB9DF82030DFF8BC800127C1
:10F330004FF0100B4FF003090C2B0ED26BB12D4880
:10F3400008F1200AC01E0C2B7ED2DFE803F07D0CF2
:10F35000CCFDFBFAF9F87DF7F6F58DF814B08DF8D1
:10F360001530FF20C6E1112E6FD1234890F83100EF
:10F3700020B18AF82A70002009F008FD4FF400102F
:10F3800090F81403800602D52046FFF715FE237877
:10F390008DF8213062788DF82220A078E17800EB9A
:10F3A000012081B2ADF823102079657900EB0520AA
:10F3B00080B2ADF82500A579E67905EB0625ADB25A
:10F3C000ADF82750267A94F809C017E09C03200076
:10F3D000C4812000140180080030102138A482006C
:10F3E00068842000648420001482200079F080006A
:10F3F0006466750003311021688A200006EB0C2634
:10F4000094F80AC0E47A4FEA0C4C0CEB04643444E0
:10F41000CDF82940CDE90021CDE90205049406226A
:10F42000FD49FE48F8F71BDB9DF821008AF808002B
:10F43000BDF82300AAF80A00BDF82500AAF80C00C0
:10F440005446BDF8271001E035E242E0AAF8181052
:10F45000DDF8291001F58061CAF81C10A0F51C51D7
:10F46000933939D0EEA10022EFA009F008FA84F810
:10F470002870D8F80C20454622B18DF801706946F5
:10F48000E8789047F8F5A6F4A0890DF121030C2245
:10F490000021F8F5DFF408B3EA6822B18DF8019095
:10F4A0006946E8789047F8F5AFF4A08938F422F17E
:10F4B00038F42FF18DF814B08DF815708DF81670A2
:10F4C000CDE9009705AB0422E978002040F46AF109
:10F4D0006F700DB0BDE8F08FD9A1C4E7F8F594F4D2
:10F4E0000C206060E6E7072E03D0CB490022C03134
:10F4F0002EE02178607801EB002083B2AAF80C306E
:10F50000A078E27800EB022022796479120402EB01
:10F5100004628018CAF8040001D00C2804D100222B
:10F52000A8F80420C8F81020BB49009002227C31C2
:10F53000BA48F8F794DACCE7A1E152E12BE1CCE04C
:10F540007AE06AE043E0FFE7032E05D0BD490022E0
:10F55000B248F8F784DABCE720786178554600EBCA
:10F56000012083B2B749AAF80C3001226839AB48B0
:10F57000F8F775DAF8F52EF40120FAF7C2DD88F80D
:10F5800002004446A88938F454F105460120FAF7F0
:10F590000CDEF8F539F4AB49A0482B46012240397E
:10F5A000401EF8F75CDA15B18DF8167009E00520F9
:10F5B0008DF81600E26822B18DF801906946E07876
:10F5C00090478DF814B048468DF815907DE09D4920
:10F5D000002224319148F8F742DA142017F4C8F0D9
:10F5E00000203EF41FF3D8F80C2032B102218DF830
:10F5F0000110694698F803009047142017F4B8F0FA
:10F6000091A14FF00450F8F7D3D9F8F5E3F34FF494
:10F610007A7103200BF067F85BE78A4900224431D6
:10F62000F8F71DDA8EA14FF00450F8F7C1D9D321B5
:10F630000320FFF7EDF84CE7032E03D081490022A9
:10F64000803185E720786178544600EB012080B254
:10F65000A0F51C51AAF80C0093393CD042F29270EC
:10F66000FDF7C0D8006E0107C0F3071201EB02518D
:10F67000C0F30E3201EB421101EBD0600023C4E96C
:10F680000003A8F804308DF814B006218DF8151089
:10F69000010A8DF81810010C8DF816708DF81910EC
:10F6A0008DF81700000E8DF81A008DF81C30654992
:10F6B0008DF81D3044468DF81B308DF81E30012228
:10F6C00060316A48F8F7CBD90920CDE9000705ABCE
:10F6D0000422E1785BE00020D0E707218DF814B028
:10F6E0008DF81510092E0CD0334601226049F8F729
:10F6F000B6D902208DF81600CDE9009705AB04229B
:10F7000043E09AF82010D34629B1594900229C3988
:10F71000F8F7A5D927E06878A978C82200EB01207E
:10F7200086B2E878297900EB012084B26879A9795A
:10F7300000EB01201FFA80FAE879297A534600EBA2
:10F74000012085B26FF0010000EB440100EB4600A0
:10F7500080B2CDE9002089B20291224631460020D4
:10F760003EF493F218B148468DF816909EE08BF85F
:10F7700020703F492948CDE9004A334604225839D0
:10F78000401E0295F8F76BD9A3E698F80310002005
:10F7900040F408F09DE60022364940F275203EF420
:10F7A0006EF133495446BAF8223001223C311B48ED
:10F7B000F8F755D988F800708DF814B009208DF845
:10F7C00015008DF8167000208DF8170008208DF8B0
:10F7D0001800608C8DF81900000A8DF81A000720B7
:10F7E00064E0052ED0D120786178454600EB0120F9
:10F7F00083B2A8F80630A078E178022200EB01205D
:10F8000080B2A8F808001A49009068310348F8F758
:10F8100026D92989E8882FE0340280080331102195
:10F8200070617463680000002573206265696E670B
:10F83000206F74612D656420253364252500000048
:10F84000617070009003800864667520737563634F
:10F850006573732C207265626F6F74210000000065
:10F86000646675207265626F6F7421000233102127
:10F87000DC04800856822000FFF748FC29E68DF85A
:10F8800014B00B208DF8150002A942F2907037F4E5
:10F890000CF620B102208DF81600FF2003E09DF841
:10F8A00008008DF816708DF817000420CDE90007C8
:10F8B00005AB042269E7012288498948F8F7CFD8C7
:10F8C00007E62DE9FE43874D0446A5F1200688464C
:10F8D0006868B188EA698DE807008049804F23464F
:10F8E00004223C313846F8F7BAD8B0886B68011961
:10F8F0005A18E9698A4210D90090CDE90141774947
:10F900000422AC313846F8F7AAD803B00022BDE88B
:10F91000F04375497548F8F7A298317841B1B1695B
:10F920002246084441464AF4B8F2B08820443FE0F9
:10F930004FF4001090F8140380060AD5002705E064
:10F9400008EB0700FFF738FB1037BFB2E01B1028A9
:10F95000F6DAB188B0692246084441464AF49DF27D
:10F96000B088204481B2B1806A68E869801A401A80
:10F9700009D04FF40062914205D0A04200D9204640
:10F980000844904215D9F8F525F2A8896968B2882B
:10F99000B369F8F55FF2D0B1F8F536F2A88937F41B
:10F9A000A9F637F4B6F6B1886868084468600020A4
:10F9B000B080B1886868084464214843E96903B0AD
:10F9C000B0FBF1F1BDE8F04349A008F058BFF8F5ED
:10F9D0001BF2E8E710B50024DDE90201042A0BD090
:10F9E000022A0CD040491346012220313F48F8F743
:10F9F00036D840F20A4010BDFFF781FC01E0FFF766
:10FA000060FF204610BDF8B51C46009336491546E8
:10FA100006461346022254313448F8F720D8052D03
:10FA200010D1E0070ED035482E4C203C0670A0695E
:10FA3000002807D140F25D33314A4FF4006116F4DB
:10FA40008FF1A061F8BDF8B52C490A78824221D126
:10FA5000244CFF20203C0870A069002610B116F449
:10FA60000AF2A6611F4D95F82A0020B185F82A6098
:10FA7000012009F08BF995F8280001280AD185F8B2
:10FA80002860E268002A05D003208DF8010069464D
:10FA9000E0789047F8BD3EB5044619484A38D0E9A9
:10FAA0000B12CDE90012A0F18001836AA82202A8FE
:10FAB0003FF4DDF530B10B499DF808002039C870DE
:10FAC000CC603EBD084909489DF8083001228031CC
:10FAD000801EF7F7C4DFFF203EBD000084058008CC
:10FAE0000331102134822000A8068008023310213F
:10FAF000080808082533642525000000AC80200094
:10FB00004EA48200062804D2F84A22F810100120E0
:10FB1000704700207047F54931F810007047F349ED
:10FB200010B508390446C871F148007AC00704D0FE
:10FB30000022F049F048F7F792DFEC4900221C3927
:10FB4000EF48CA610A624A620178EC4A20463EF4F4
:10FB500006F508B1002010BD012010BD10B589B90F
:10FB6000E2494A8922B1E64909783EF4A2F558B142
:10FB7000DF480078C00705D0DE4900229031DE481A
:10FB8000F7F76DDF002010BD012010BD1CB5C1B915
:10FB9000D6490024CA880B8942F60211CDE9001427
:10FBA000D749521C92B209783EF4B0F558B1D0480A
:10FBB0000078C00705D0CF490022D431CE48F7F7EE
:10FBC0004EDF00201CBD01201CBD0EB5C74A538965
:10FBD0005BB1ADF80810022102AACDE90012C849B4
:10FBE000012209783EF45CF650B1C1480078C007A4
:10FBF00004D00022C349C048F7F731DF00200EBD12
:10FC000001200EBD2DE9FC41B94E8046BA4F307A35
:10FC100014460D46C00707D0BA4900942B7802223B
:10FC200044313846F7F71BDF307BC0070BD02A463C
:10FC30002146B548F8F769D9B24903460122803117
:10FC40003846F7F70CDFA94903201C390870A7488C
:10FC5000C38843B1AA48CDE9004501220178404656
:10FC60003EF41EF658B13078C00705D0A5490022F1
:10FC700090313846F7F7F3DE0020BDE8FC81012023
:10FC8000FBE71CB5994C02231C3C2370974B9B88C7
:10FC90003BB1CDE900219A49022209783EF400F6F1
:10FCA00058B193480078C00705D096490022D0315A
:10FCB0009148F7F7D4DE00201CBD01201CBD2DE9C2
:10FCC000FF5F8B4E002482468DF80040307A8846D4
:10FCD000A146C00705D00B4601228C498648F7F79C
:10FCE000BEDE824F864DA7F11C0BB8F1020F16D075
:10FCF000B8F1060F2FD0B8F10A0F36D03079C0070F
:10FD000005D08249002238317B48F7F7A8DE9BF8FE
:10FD10000200D84601282DD0022847D143E0388878
:10FD200008B97888A8B1307AC00705D07149002297
:10FD300028317148F7F793DE7B883A882978504656
:10FD40003EF43DF40028E2D001208DF804000124A7
:10FD5000DDE70220F9E76878062804D2798827F8D9
:10FD60001010062068708BF8029060481A3800F076
:10FD700095FDCCE7F8883F89401C1FFA80F9307A5E
:10FD8000C00705D05B49002258315B48F7F767DEB2
:10FD90003B464A46297850463EF474F430B101207F
:10FDA0008DF8040004E08DF8049001E0002C07D0E9
:10FDB000D8F80C30002B03D06A4651462878984773
:10FDC000BDE8FF9F2DE9F041494E4B4F1446307A74
:10FDD0000D46C00706D00B464C4901227831384603
:10FDE000F7F73DDE022D0FD0404A042D13D0052D2C
:10FDF00034D03079C0072CD03846BDE8F0414349B3
:10FE00000022B431F7F72B9E21880020FFF77AFEFD
:10FE1000618801202FE03A4D6878062805D22188B4
:10FE2000491E22F8101006206870A01D10223849C3
:10FE300049F4E8F778B13649A01D1022103149F491
:10FE4000E1F7002805D1A1880320FFF75BFE04201D
:10FE50006870BDE8F081A18802200CE06088A0F500
:10FE600024510239F5D12188D0888842F1D21089F5
:10FE70008842EED30520BDE8F04143E62DE9F0418C
:10FE800086B0804602200C9F8DF808001848ADF817
:10FE90000E101D46007A16460C46C00708D01B49B6
:10FEA000CDE9006523460322FC311348F7F7D7DD7F
:10FEB0000E484089B0420DD100208DF80C004CB99D
:10FEC000022D07D13878797800EB012000F001008D
:10FED0008DF80D0005481C38C368002B04D0084875
:10FEE00002AA41460078984706B0B2E77C8220001B
:10FEF000C4812000500780080030102174A38200C4
:10FF0000AD80200068088008000050217809800832
:10FF100064A482001FB50321ADF80630FD4B8DF8B7
:10FF200000105989914201D1012108E0D9889142FC
:10FF300001D1002103E0998891420CD102218DF872
:10FF40000410F4491C39CB68002B04D00146F24858
:10FF50006A46007898471FBD7FB5EE4D0146089C64
:10FF6000ED8840F60450954211D104208DF8000030
:10FF700000208DF80400E748ADF808301C380394E1
:10FF8000C3681BB1E4486A4600789847002004B073
:10FF900070BD10B5E14C0420606242F29370FCF732
:10FFA00021DC0020206142F29270FCF71BDC006E25
:10FFB0000107C0F3071201EB0251C0F30E3201EB4F
:10FFC000421101EBD060606110BD2DE9F84380461D
:10FFD000D0480838C279424524D1FF21CE4ECD4FBA
:10FFE000C17106201C3F70700024BC707C70FFF74C
:10FFF000D0FFCA4D95F82A0020B185F82A4001208B
:02000004008179
:1000000008F0C4FE95F8290001280BD185F8294095
:100010003B69002B06D003208DF801006A4641465B
:1000200030789847BDE8F8837FB5044600200090FB
:1000300001900290039010222146684608F0A4F92E
:100040006A46B7491046F8F7ACDE05461022694605
:10005000204608F099F9284699E710B5002303E0F7
:1000600030F8024B62405B1CB3EB510FF8D31046E3
:1000700010BD2DE9FE4FDFF89C92AA4FA9F11C0993
:10008000A94E99F80000032847D0002202A940F2A7
:1000900075203DF4F4F4BDF80800A04CC01E80B2F9
:1000A00020F00F00ADF80800E3696268991A8142F8
:1000B00000D30146307A8DB2C00706D0CDE90025C5
:1000C00003229A493846F7F7CADCA089FCF78ADB95
:1000D000064640F28923964A2946002015F440F648
:1000E000070023D06068A04681192A46384649F4A3
:1000F000D4F660686421284460604843E169B0FB3D
:10010000F1F18CA008F0BBFB4FF4001090F8140341
:10011000800617D53E46002411E03079C00705D08F
:100120008249002240393846F7F799DC0020BDE8C3
:10013000FE8F3046FFF778FF641CA4B21036B4EB94
:10014000151FF6D3DFF8CCA12A46AAF1080A3946D2
:100150009AF80700FFF795FDB9F806004C4600260F
:1001600000B92681401CE080228929463846FFF7E5
:1001700074FF2081E188A288914205D0D8F804302C
:10018000D8F81C20934218D10A228DF80020BDF81F
:100190000820491E01FB02518DF80110090A8DF853
:1001A00002108DF80400000A8DF803009AF8070089
:1001B00005226946FFF726FDE680384615F45BF612
:1001C0000120B4E72DE9F74F574F91F800804D78A3
:1001D000387A88B016460C46C00708D05349CDE996
:1001E00000564346032258314E48F7F738DCB8F141
:1001F000100F38D1DFF81C91DFF820814FF0000A92
:10020000A9F11C09062D31D0012D7DD0092D7CD0FE
:100210000A2D7BD0032D26D1032E24D1387AC00796
:1002200005D0A378012246493E48F7F718DCA078AC
:1002300001286CD005208DF800000122694608983D
:10024000FFF7E0FC88F829A0D9F81030002B0AD07D
:10025000A07801285CD003208DF8050001AA2E4863
:100260000899007898470BB0BDE8F08F092EFAD1B5
:10027000E0782179A27900EB0120617945460904F3
:1002800001EB02614418B8F80C0042F2937842F294
:10029000927640450ED12869A04214D829A008F0D2
:1002A000EEFAAE8106208DF8000092208DF8010054
:1002B0002720F9E0B042D6D16869A04203D826A031
:1002C00008F0DDFACFE72A484FF0010B90F8310033
:1002D00020B185F82AB0002008F058FDA889FCF765
:1002E00081DA8DF80CB00168CDF80D104168064632
:1002F000CDF811108068CDF815004FF40010CDF83E
:1003000019A090F8140335E073E083E0A0E0D3E097
:10031000D4E000007C822000AD80200034822000E8
:100320009C03200000301021C4812000040B8008B1
:100330009CA48200080808082533642525000000D5
:10034000A40C8008617070206E6F206E656564205B
:100350006F7461210D0A00007061746368206E6F14
:10036000206E656564206F7461210D0A0000000035
:10037000688A2000800603D50DF10D00FFF754FEBA
:10038000112203A90898FFF73DFC0C206860B068B3
:1003900000F58060E861397AC90714D0AA8942451E
:1003A00001D1296900E069690094CDE9011002D109
:1003B0004FF0010301E04FF000034FF00402FE494B
:1003C000FE48F7F74CDBA989414501D1FCA100E0CB
:1003D000FCA10022FDA008F052FA85F829B0D9F856
:1003E00010305846002B3FF46DAF8DF801006A467F
:1003F00035E7032E7FF466AF387AC00705D0EE49A3
:1004000000226C31ED48F7F72ADB09208DF8000057
:1004100001224CE0072EEDD1E0782179A27900EBA2
:10042000012081B26079002400EB022080B24FF6F7
:10043000F072C01E1040B1FBF0F0A9F80400A9F85A
:1004400006A0FFF716FE641CE4B2082CF9D30AE7F5
:10045000072EFCD1E0782179A27900EB01206179A7
:10046000090401EB02614518387AC0070AD0D8F8B0
:100470000400CDE90005D049A3780322A831CF4874
:10048000F7F7EDDAC8F80450D8F81C10A94203D9E0
:100490000BB0BDE8F04FECE503218DF80010B8F883
:1004A0000C008DF80100000A8DF802000322694655
:1004B0000898FFF7A7FBD6E60420BCE60220CBE6AF
:1004C0002DE9F843C74EBD4FC74D307A14468846D4
:1004D000C00707D02878009023780222C349384605
:1004E000F7F7BDDA207805281DD2DFE800F0038D8C
:1004F0002A387F00207920B1012815D0022812D196
:1005000012E0BBA008F0BBF9307AC00705D0B749AC
:10051000002244313846F7F7A2DA01214046FFF7BE
:1005200054FB012028706FE03079C00705D0AF4937
:10053000002284313846F7F792DAB5A008F09FF927
:1005400062E0207900285FD1307AC0075CD0A749EB
:1005500063790122C4313846F7F781DA54E0E08844
:1005600078B13079C00708D0287800909F49237966
:100570000222FC313846F7F772DA00203DF452F3DC
:1005800042E0207920B3AA49012802D002283BD1B9
:1005900014E02878012837D142F293708881062030
:1005A0008DF8000093208DF8010027208DF80200BF
:1005B000032269464046FFF725FB25E028780228FC
:1005C00022D1C869496888421ED9FFF752FD1BE055
:1005D0002878032818D100242C70EA78A2B1824927
:1005E00040462831FFF7EEFDEC700DE0207958B958
:1005F000287858B1227AEA70142A00D914227A484D
:10060000E168283049F449F400200BE5228940468E
:10061000E168FFF7D7FDF7E73EB5734C0546607814
:1006200002281DD12A4669464FF41C703DF427F27A
:10063000062204F11401684649F4E4F380B92A461D
:1006400002A940F271203DF41AF204F114009DF861
:1006500008108079884203D12846FFF760FA3EBD32
:10066000012060703EBDF0B55F4E044600F10A0106
:10067000477A7078002287B0002812D1E0790028EC
:100680000FD10CE0885C521C831ED2B21E2B06D206
:1006900013181F2B03D88D5CFF2D04D0DAB2BA4299
:1006A000F0D307B0F0BD1028FBD18D1835F8010F3D
:1006B0005D28F6D1A8780128F3D14A485C4F007A2A
:1006C000C00712D0D7E90413D5F807000DF1040CC8
:1006D000D5F80B208CE80F00786A0090D5F803302D
:1006E000062254493548F7F7BAD9D5F80300796A94
:1006F0008842D6D13869D5F80710884204D878697D
:10070000D5F80B108842CCD9022070701020ADF8BB
:100710000C00ADF81000ADF80E00ADF8120000208E
:10072000ADF814001E20ADF818004FF47A75ADF83E
:100730001A00ADF8165003A900203DF4C8F2009548
:10074000A2790023214601203DF416F32068706150
:100750002549A08830831431A0798871A078227847
:1007600061788DE80700E3782279617932A008F09A
:1007700086F896E7F8B506463D4968463DF4FAF531
:1007800001000E4F17484FF0FF047AD0394D9DF805
:1007900000302B70007AC00705D026490122803135
:1007A0003846F7F75CD9AFF2E7210F48C0E90316E6
:1007B000FFF7EFFB0C4860E0B00B80080030102121
:1007C00061707000706174636800000025732062BE
:1007D00065696E67206F74612D696E6720253364CB
:1007E00025250000C481200060822000F40C8008D0
:1007F0004466752073657276696365206469736306
:100800006F7665727920656E64210D0A0000000024
:1008100044667520736572766963652064697363E5
:100820006F76657279206661696C6564210D0A00D6
:1008300034822000440E800844667520636C69652C
:100840006E742074727920636F6E6E656374696E66
:10085000672030782530327825303278253032786C
:100860002530327825303278253032780D0A3E0036
:1008700084A48200AD80200003E01430C471287885
:10088000F8BD8DF800400078C00704D00022084968
:100890003846F7F7E4D89DF80000F8BD017821B993
:1008A0000449098909B1012100E002210170704762
:1008B000A00E80087C8220002DE9FF41A04CDDE9DC
:1008C0000A300E4600250327246840F20D41022A13
:1008D00012D04FF0020C102A17D00C2A2CD0009303
:1008E0001346022297499848F7F7B9D840F20A45CB
:1008F00004B02846BDE8F081012B2DD160B38DF8FE
:10090000047001218DF806101DE0052B24D118B3C9
:100910008DF804708DF806C001788DF808104178C4
:10092000827801EB0221ADF80A10C178007901EB61
:100930000020ADF80C0009E0012B0DD160B18DF85D
:1009400004708DF806C000788DF80800002CCFD018
:1009500001A93046A047CBE70D46C9E72DE9FC4782
:10096000794FDDE90A54764E4FF0000942F2927059
:100970004FF0040842F2937A0A2A61D006DC042A76
:1009800012D0062A2AD0082A04D13DE00E2A5CD0D3
:10099000122A7DD06B49134601223C313846F7F7C5
:1009A0005ED840F20A4948E065494FF400701031C2
:1009B0003BF441F3624A002069461032C0F105035E
:1009C000D35C0B54401C0628F8DB00983061BDF85E
:1009D0000400B0820620226028802EE0FBF702DFB0
:1009E00058498246034601226C313846F7F737D81A
:1009F0005449DAF860300122803138467360F7F7E5
:100A00002ED84F48001D15E05046FBF7EBDE4D4950
:100A100082460346012298313846F7F720D84949E3
:100A2000DAF860300122AC313846F360F7F717D8B6
:100A300043480C302060A5F800804846BDE8FC879C
:100A40000020B0603E480830F4E742F29070FBF7B7
:100A5000C9DE3B4E417818360346B170052131702E
:100A6000012171704078B0704905F07891F8141345
:100A700040F00100490961F3410020F0180040F006
:100A80000400F0704FF40060B08001222D4900E0B6
:100A900009E0C0313846F6F7E2DF4FF47360B0602A
:100AA0000C20266098E7FBF79DDE264906460346A4
:100AB0000122D8313846F6F7D2DF306E204E214978
:100AC000243601223060EC3138467368F6F7C7DF10
:100AD0005046FBF787DE8046034601221B49384615
:100AE000F6F7BDDFD8F860007060184901221431B4
:100AF0003846B368F6F7B3DF082026606CE73EB5EA
:100B000004461348D0E90612CDE90012A0F50071A1
:100B100043694FF4057202A83EF4A9F520B10848D4
:100B200004609DF808003EBD084907489DF808305C
:100B300001222831801EF6F792DFFF203EBD000023
:100B40009C822000F00E800802331021F40F8008F0
:100B5000C4A682001FB502208DF80C007420ADF8E9
:100B60000400FB200090FF48FD4B002201A9006813
:100B700015F438F2002808D0FE200090FA48F84B0F
:100B8000002203A9006815F42DF21FBD38B5F74CFB
:100B9000E06950B9F64800900023012241F2883103
:100BA000F4A007F096FBE06128B1BDE83840EF48BB
:100BB0001C3016F433B0F0480078C00606D5BDE806
:100BC00038400022ED49EE48F6F7499F38BD10B590
:100BD000E64CE069002805D004F11C0016F453F03F
:100BE0000020E06110BD7CB508F012FB002842D166
:100BF00007F0A4FE04003ED00221217001206070A5
:100C00000622A2700322E2702171B3216171FE21DC
:100C1000A1710F21E171FF212172A8216172A072DF
:100C20008520E072207B04F10B0520F00300401CBE
:100C300020F0E80040F01400207340F2CD30C4F8FA
:100C40000D0069464FF400703BF4F5F10098C5F8CB
:100C50000600BDF804006881C748007AC00605D5C3
:100C6000C64900224431C648F6F7F9DE172221466C
:100C7000032009F0A7F87CBD2DE9FC41BE4F80465A
:100C80001446387A0D46C00616D5BD4E00946B78D2
:100C90000222BC493046F6F7E2DE387AC0060BD5B0
:100CA0002A462146B848F7F730D9B649034601220B
:100CB00034313046F6F7D3DE0020CDE90040AB48B2
:100CC0002B4608380622017840463EF46BF5BDE815
:100CD000FC8101234B700B7823F0FF030B708B78A2
:100CE00023F0FF038B70131FCB70C5E730B40324D0
:100CF0004C700C7863F3030424F0F0030B708B78D2
:100D000023F0FF038B70131FCB7030BCB4E71FB50B
:100D10009DF8002061F3030222F0F0018DF800102D
:100D20000F218DF801109DF80210042221F0FF011F
:100D30008DF8021000218DF803106946FFF79CFF23
:100D400004B010BD2DE9FC418B4F80461446387A23
:100D50000D46C00617D58B49894E00946B78022248
:100D600048393046F6F77BDE387AC0060BD52A467E
:100D700021468548F7F7C9D882490346012214392C
:100D80003046F6F76CDE0020CDE9004077482B4670
:100D900008380B22017840463EF404F597E70B78BB
:100DA00023F0FF030B708B7823F0FF038B70131F6E
:100DB000CB70C7E710B520B1012804D04FF0FF3049
:100DC00010BD012010BD42F29270FBF70BDD006EEA
:100DD0000107C0F3071201EB0251C0F30E3201EB21
:100DE000421101EBD06010BD2DE9F04FDFF8889182
:100DF00080465E4D99F808008BB016460C46C0063A
:100E000024D5AA786178CDE9051602F00F02CDE964
:100E1000032828692A7DA9688DE807005749584F9B
:100E2000AB88082268313846F6F719DE99F80800D1
:100E3000C0060BD5224631465348F7F766D84F49CE
:100E400003460122F4313846F6F709DE607820289F
:100E50000BD0DFF818B10027ABF1080B222810D017
:100E6000252866D02F2879D1C8E0052EFBD1212076
:100E70008DF81D0020798DF820002079FFF79AFF6A
:100E800070E1102EEFD12079FFF794FFD4F8051010
:100E9000884207D2D4F80900B0F5483F02D808B11B
:100EA000820704D08DF82070CDF821703DE0E37BFF
:100EB000364A93B12B698BB12379AE8832F813305F
:100EC000B3420AD1EB68994207D1A968884204D19C
:100ED000B4F80D00298888420FD02F6114F8040F50
:100EE00032F81000A880D4F80500A860B4F8090012
:100EF0002880D4F80100E8602F75A87820F0FF0062
:100F0000A87001208DF820002869CDF82100DBF8B9
:100F1000042052B11248183013C88DE813008DF820
:100F2000008069469BF80000904723208DF81D0043
:100F30001AE1052E12D126208DF81D008DF82070A3
:100F4000207901282DD12969A868884229D1F6F590
:100F500041F70120F9F7D5D8A88819E090E0000002
:100F600060A882006884200064842000DC82200065
:100F7000550B810061697300C48120004410800812
:100F8000003010219C12800800005021E4A682004D
:100F900036F44FF48DF820000120F9F706D9F6F564
:100FA00033F7052207A94046FFF7F9FEDBF80420D6
:100FB0008AB1B04813C88DE813009DF820008DF861
:100FC000008008B1022000E003208DF8040069468B
:100FD0009BF8000090479DF8200000280BD0A6A1A8
:100FE0004FF00450F6F7E4DCF6F5F4F64FF47A71BE
:100FF000032009F078FB0BB0BDE8F08FA178A8784A
:1010000001F00F0200F00F03AA469A4207D099F8A8
:101010000400C00613D5009202229D490CE0E3783B
:101020001A1DB2420CD099F80400C00607D5361F2D
:1010300097490222483100969648F6F710DD80E085
:10104000271D491C61F303008AF80200A1780026DD
:10105000090961F307108AF80200DAF810001D464A
:101060005246A0B991882089814210D099F8000099
:10107000C00605D58649002290318648F6F7EFDC98
:10108000207800F00F014046FFF741FEB3E79AF8E1
:1010900014008149D1460091F0B11646C0F1040216
:1010A0000844211D48F4F9F6F6F594F6317D3069CF
:1010B0000422411AB088009BF6F5CCF6F6F5A4F6AA
:1010C000307DC0F10400C6B23744B54201D9304684
:1010D00000E02846281A85B205F0030189F81410AB
:1010E00035F003050CD0F6F575F6D9F81010B9F8FF
:1010F000040031443B462A46F6F5ACF6F6F584F694
:1011000099F814204E461AB17919009848F4C5F69A
:10111000E178306901443161DBF804208AB1554837
:101120000C3031C88DE8310064208DF800804143D7
:10113000B068B1FBF0F08DF8050069469BF800003F
:10114000904724208DF81D009AF802009DF8201089
:10115000421E62F30301000960F307118DF82010AD
:10116000DAF81000CDF82100092207A94046FFF760
:1011700016FE40E7FEB50B46DDE908510024022AC1
:1011800003D040F20A442046FEBD434A1D3A52684D
:10119000002AF8D0002600968DF80000CDE9015114
:1011A000694618469047EEE7FEB513460E46DDE960
:1011B000082100240546042B10D0092B22D03748E3
:1011C0000078C00606D5324900920222C831314863
:1011D000F6F745DC40F20A442046FEBD2E481D3895
:1011E0004368002BF8D023482038876B006C0290AE
:1011F000009701918DF80050ADF8082069463046FF
:101200009847E9E7FFF7F0FDE6E7244808B5007ADC
:10121000C00606D500931346022221491D48F6F761
:101220001EDC08BD3EB513490546A039D1E91D02B3
:10123000CDE900020B6F4FF4B672FC3902A83EF400
:1012400016F240B1144C1D3C6560FFF79FFC9DF801
:10125000080020703EBD11480078C00607D510492F
:101260009DF80830012248310A48F6F7F8DBFF20E4
:101270003EBD000084A882006466752073756363B8
:101280006573732C207265626F6F7421000000001B
:101290004C11800800301021F1822000C481200010
:1012A000E412800870B5134601249A4A092806D230
:1012B000DFE800F00C15212A333C454C5600002491
:1012C000224695499548F6F7CADB12E0142900D961
:1012D000142111708F480A4619460C3007E0142972
:1012E00000D9142151708B480A461946203048F421
:1012F000D4F5204670BD142900D914219170854879
:101300000A4619463430F2E7142900D91421D17065
:1013100080480A4619464830E9E7142900D91421C3
:1013200011717C480A4619465C30E0E7142900D95F
:101330001421517177480A4619467030D7E70829B9
:1013400000D908210A4619467548D0E71E2900D958
:101350001E2173480A460838017019461030C6E746
:10136000072900D907216E480A461946C01FBEE763
:101370002DE9FC479246DDE90A450A46002626800B
:1013800002218DF804108DF80500AAF1020008274B
:10139000DFF880814FF0070911280AD2DFE800F05A
:1013A0001E098C092C0949093B09570913096509CC
:1013B00072005949534601221C315848F6F74FDB59
:1013C00040F20A466BE08DF806901046D8F80820E7
:1013D00001A9904752482860278060E001208DF8DD
:1013E00006001046D8F8082001A9904749480C305B
:1013F000286098F800000CE003208DF806001046E5
:10140000D8F8082001A9904742483430286098F85D
:101410000200208043E005208DF806001046D8F831
:10142000082001A990473B485C30286098F80400E8
:10143000EFE704208DF806001046D8F8082001A92F
:10144000904734484830286098F80300E1E70620C8
:101450008DF806001046D8F8082001A990472D48BD
:101460007030286098F80500D3E78DF806701046B4
:10147000D8F8082001A9904729480830286010387A
:101480000078C6E709208DF806001046D8F8082035
:1014900001A990472248C01F2860A4F80090208826
:1014A00000901D491D48534602224431801CF6F726
:1014B000D6DA3046BDE8FC878DF806101046D8F81D
:1014C000082001A9904713482030286098F80100AF
:1014D0009FE73EB504461348D0E90612CDE9001255
:1014E000A0F5007143694FF4057202A83EF4BFF005
:1014F00050B909499DF8083001227C310748F6F7B8
:10150000AEDAFF208DF80800024884609DF80800DC
:101510003EBD0000FC8220005C13800800331021D7
:10152000B7802000A8AA820070B5002551F82520B8
:1015300010E0541E264622EA0403002402E0641C44
:10154000E4B25B08002BFAD104EB45135B1E00F8F4
:10155000013B3240002AECD16D1CEDB2082DE5D3E1
:1015600070BDF0B50346002001464FF055344FF0F2
:1015700033354FF00F364FF0FF1753F82120491C39
:1015800002F0553C04EA5202624402F0333C05EAA0
:101590009202624402F00F3C06EA1212624402F028
:1015A000FF1C07EA1222624402EB12421044C9B245
:1015B000C0B20829E1D3F0BD2DE9F04380468DB0DB
:1015C00016460F4699461846FFF7CBFF001D054605
:1015D00001466223F24A002014F4C2F304001AD038
:1015E00004202070677066804946201DFFF79CFF2D
:1015F0006846CDF8008007F0E5FE0194ADF80A508A
:10160000684607F050FF0546204614F434F4284697
:101610000DB0BDE8F0831020FAE72DE9F0478146D0
:1016200015460E4698461846FFF79BFF001DDC4AFC
:10163000074601467D231132002014F491F3040083
:1016400013D005202070667065804146201DFFF78D
:101650006BFF3A462146484600F06DF905462046A4
:1016600014F409F42846BDE8F0871020FBE770B5B4
:10167000446A054604F12C032288A178FFF79CFFF9
:101680000022686A114600EB8103DB6A03B1012284
:10169000491CC9B20829F6D342B1E078012484403C
:1016A000286A0AF0CCFEB0FBF4F070BD002070BDDB
:1016B000406A2C3055E7406A416002727047406AC8
:1016C0000180704770B50546446A480901F01F0261
:1016D00004EB80010126CB6806FA02F00343CB60DD
:1016E000CA6A04F12C030243CA622288A178284600
:1016F000FFF762FF2D6A686900280ED0E078864007
:1017000028460AF09CFE002807D0B0FBF6F105F150
:101710001400BDE8704015F492B270BD426A4809E9
:1017200002EB800001F01F01C26A8A43C262704767
:10173000416A0020024601EB8003401CC0B2DA621D
:101740000828F8D37047426A480902EB800001F08C
:101750001F01C06A01228A401040012800D00020E9
:1017600070472DE9F04104464068218948F2310371
:101770000844E1680127CA1A994250D013DC48F2A4
:101780000603A1EB0302994218D007DCA1F1040182
:10179000B1F500410ED0012978D10FE0292A4BD0B4
:1017A0002A2A73D148E0062A70D2DFE802F0976255
:1017B000621D2424608902280DD090E061890329EC
:1017C00011D181782068007E0BF0F7FAE068A0F56F
:1017D0000041053907D12068007E0BF0D3FA01469D
:1017E000204600F0CEF87AE06089022877D12068A0
:1017F000406AC1780FE06189032970D1216880783F
:101800004A6A0F286BD800F00F01D170E068A0F58C
:101810000042353A63D1204600F0A5F85FE06189C7
:1018200004295CD1216840884B6A1A88904256D1BD
:10183000997820460C334EE0618904294FD1216804
:1018400040884B6A1988884249D1002019460246CF
:1018500001EB8005401CC0B2EA600828F8D3E068BC
:10186000A0F500412F393AD133F8022B13F80A1BA7
:1018700030E06189052932D12168B0F803204D6A32
:1018800029888A422BD100262A7A15E026E06B6847
:1018900090F802C013F8363063450BD185F802C0CA
:1018A00004226B6802EBC6029B583BB18278206829
:1018B000984703E0761CF6B2B242E8D8287AB042E4
:1018C0000DD9E068A0F50041323908D12A88A978FD
:1018D00005F10C032046FFF7A0FE00E00027384684
:1018E000BDE8F08170B50C00064622D02C4A40F2CB
:1018F000931323324C21002014F432F205000FD050
:101900004C2148F4ADF327486562206026486060AA
:101910002648E060F0B22146BDE870400AF0C5BE3E
:1019200023480078C00704D0002222492248F6F755
:1019300096D8002070BD70B58CB004460068009049
:1019400016460D46684607F03DFD0195ADF80A6064
:10195000208AADF81200208DADF82800684607F007
:10196000A2FD0CB070BD08B503228DF802108021D5
:101970008DF8001037218DF801106946FFF7DBFF65
:1019800008BD08B503228DF8021080218DF80010E3
:1019900007218DF801106946FFF7CDFF08BD000053
:1019A000C8AA8200FFFF0200631781006F16810042
:1019B000C4812000FC138008003010212DE9F0477D
:1019C0008846089D99461746824605F108012B2353
:1019D000F44A0E46002014F4C3F1040019D0B620D6
:1019E000207002206070A4F80280386860602A4687
:1019F000494604F1080048F450F2B2B2214650467C
:101A000000F01BFA0546204614F435F22846BDE8DE
:101A1000F0871020FBE7F0B585B0B627DDE90B5461
:101A20000A9E8DF8007008278DF801708DF802105D
:101A30009DF80310ADF8046062F3020163F3C7017F
:101A40008DF803102968CDF80610002C05D0216808
:101A5000CDF80A106168CDF80E1002D04FF00001E9
:101A600001E04FF00801C1F11202694600F0E5F90A
:101A700005B0F0BD70B5CC48032100F12802036920
:101A80009847002801DA032400E00024C64E002510
:101A90002836B572306A10B114F4EDF13562204683
:101AA00070BD2DE9FE43064640683189BE4F45189A
:101AB000283769883A8807F10C09914201D001243E
:101AC00063E0032029183A1809799278914206D8E0
:101AD00021D300B3A0F1010040B20028F2DAB87AB5
:101AE000B14CB846D8B1082205F10801484648F47F
:101AF00089F190B12369DBB104F12802022120466B
:101B00009847AA484068400316D50022A849A9482A
:101B1000F5F7A5DF10E0042437E0002435E0236961
:101B200043B1A14AA048283200219847002803DA8F
:101B300002242AE0052428E0012088F80A009A48B7
:101B400069680024C0F82E10A9684163E9688163C0
:101B5000708910380004000CA8F8240015D0D8F8BB
:101B6000200008B114F487F18E4AB8F82410BB2382
:101B70000D32002014F4F4F0C8F82000A8B1B8F831
:101B8000242005F1100148F488F1FC7286483A8857
:101B90002E30CDE90020CDF808903B7DBA7A214661
:101BA0003046FFF738FFBDE8FE83002088F80A00C2
:101BB000C0E7FEB50746406839897B4E4518283690
:101BC000B5F803003188884201D001241BE00422CB
:101BD000B11D681D48F416F120B9B07A012803D070
:101BE000022801D005240EE0002402280BD0022098
:101BF000B072A87886F826006B4803691BB100F123
:101C00002802012198476848F47234303288A0F1E4
:101C10000A010092CDE90110337DB27A214638469F
:101C2000FFF7F9FEFEBDFEB50646406831895E4D00
:101C30000844283541882A88914201D001241AE0BD
:101C4000A97A39B10422A91D001D48F4DBF018B1AE
:101C5000052410E000240EE00024AC72286A274618
:101C600010B114F408F12F624F4803691BB100F161
:101C70002802022198474C48EC7234302A88A0F19F
:101C80000A010092CDE901102B7DAA7A2146304647
:101C9000FFF7C1FEFEBD3EB5054640682989424CAE
:101CA0000844283441882288914201D0012110E063
:101CB0000422A11D001D48F4A5F018B9A07A03283C
:101CC00004D008B1052104E0002102E0FFF7D2FEB4
:101CD00001463548E17234302388A0F10A02CDE98B
:101CE00000320290237DA27A2846FFF794FE3EBD83
:101CF000FEB504462C4DC0686FF4364128350844C3
:101D00000126298807284BD2DFE800F0044A0F207B
:101D1000272E35006089022833D1A88B0090AA1C99
:101D20002046AB69FFF74AFE2BE06089082828D1DE
:101D30001D4800913430A0F10A02CDE901202B7D2D
:101D4000AA7AE97A2046FFF766FE1AE06089102831
:101D500017D32046FFF7A5FE13E06089092810D1AC
:101D60002046FFF726FF0CE06089082809D12046AD
:101D7000FFF759FF05E06089082802D12046FFF7E8
:101D80008AFF0A488068400308D5A87A009008496D
:101D9000022250310748E368F5F761DE3046FEBDA8
:101DA0000026FBE7FDAA820080832000C48120007A
:101DB000581480080030102170B52D4B05462B4873
:101DC0000C461860AFF2D7001A615860194600201F
:101DD0000AF06BFC26482830058028382168C0F8B6
:101DE0002A1070BD10B5224B04685C63406898638C
:101DF0000868C3F82E0003F12800012180F826208E
:101E000081720021C17210BD1949002028318872E9
:101E1000704710B5164C2834A07A022801D0002053
:101E200010BD94F82600012803D00320A0720120E1
:101E300010BDFFF71FFEE072F9E770B58CB00446E5
:101E40000068009016460D46684607F0BBFA0195FB
:101E5000ADF80A60208AADF81200208DADF8280098
:101E6000684607F020FB0CB070BD0000FFFF00FECD
:101E7000808320000EB5002A8DF8021005D011686D
:101E8000CDF803105168CDF807104FF0B7018DF869
:101E900000104FF008018DF8011002D04FF0000142
:101EA00001E04FF00801C1F10B018AB2694600F070
:101EB00095FB0EBD7FB5B7258DF8005004258DF834
:101EC00001508DF80210089C1168CDF8031051687C
:101ED000CDF80710CDF80B308DF80F401022694671
:101EE00000F07CFB04B070BD08B5B7228DF800206F
:101EF00006228DF801208DF802100322694600F0B9
:101F00006DFB08BD2DE9F0471D468146884603203C
:101F100000EB450116460F464E23FE4A002013F4FF
:101F20001FF7040018D0B72020700920607084F8D3
:101F300002802DB126B16A003146E01C47F4ADF7AE
:101F4000BAB22146484600F049FB0546204613F444
:101F500092F72846BDE8F0871020FBE71CB5B724B0
:101F60008DF800400B248DF801408DF802108DF89B
:101F70000320ADF804300622694600F02FFB1CBD9B
:101F8000E5494978002900D1012070472DE9FE4F2D
:101F9000064640683189E04F4418DFF8808338787E
:101FA000DFF87C9338B10822B91CA01C47F42AF74B
:101FB00018B1032534E00F2532E0B88B61898842DF
:101FC00002D24FF002052BE002D94FF0010527E0C5
:101FD000A18969B1B98AA1F10101884216D1D7E975
:101FE0000310B1FBF0F200FB1211B96111B102E074
:101FF000072515E0B861A089B9690144491EB1FB04
:10200000F0F080B2142803D9042509E03869F1E71B
:10201000B07A0F38C2B287F83420A07B80B1052592
:10202000D8F80400400305D52B460122BD49484697
:10203000F5F715DD03B029463046BDE8F04F53E70C
:10204000387800250128F5D102203870A089F8835E
:10205000A07B7870B0480021283820F8481F817094
:10206000AD4804F10F018A46303047F416F7D8F82E
:1020700008004003DED5A08997F83420A17B8DE8C5
:102080000700A849638904228C394C464846F5F775
:10209000E6DCD8F808004003CCD597F83410524657
:1020A000A148F5F732DF9F49034601221039204647
:1020B000BEE72DE9F04F0289416800248D1896494A
:1020C000DFF85892DFF858A20A7885B0022A01D0CA
:1020D000E52495E088468969B8F81E2040898B1868
:1020E0005B1EB3FBF2F2C01E87B2D9F8080096B2AD
:1020F000400310D5B5F80100019102AB894983E88E
:10210000C100B8F814000090B8F81C3006224C3119
:102110005046F5F7A4DCB5F80120B24201D3F4240F
:102120006EE0701E824205DAB8F81E00B84212D086
:10213000FD2465E0B8F81E10D8F81830B3FBF1F0B4
:1021400001FB10300004000C00D10846874202D089
:1021500040F20B1454E0704811462030834606F0DC
:102160008AF910B14FF48A744AE0B5F801100122DF
:10217000584606F08AF9B5F80120B8F81E00D8F8DC
:102180002C1002FB00103A46E91C47F486F60025A5
:1021900006E02946584606F06EF918B16D1CADB23E
:1021A000B542F6D3B54229D3FFF7EAFE0025002851
:1021B0005948A0F1280031D0036913B1564A0021D3
:1021C0009847012088F80000B8F81C004646401CDB
:1021D00080B2A8F81C00B8F8141088420ED13570EF
:1021E000D9F80800400305D54E490022B8315046C1
:1021F000F5F735DCF06A13F43EF6F562002C13D0E7
:10220000D9F8080040030FD505B023465046BDE875
:10221000F04F44490122FC31F5F7219C20F8485F3A
:102220004FF497748570EBE705B0BDE8F08F2DE9AA
:10223000F047804641680089374D0C180822A91CD8
:10224000601C47F4DFF518B100231A46032107E0AC
:10225000B4F80900A98B884206D200231A46194611
:102260004046BDE8F0474DE62A4A4FF4B5730F32B9
:102270002821002013F474F54FF0000407002646CF
:1022800019D0E88BA969DFF890900144491EB1FB91
:10229000F0F086B2002509F120090AE029464846F7
:1022A00006F0E9F818B927F81450641CA4B26D1CA4
:1022B000ADB2B542F2D32CB1B44201D3042102E055
:1022C000012100E0002123463A464046FFF71AFE6E
:1022D0003846BDE8F04713F4CEB52DE9FC47044677
:1022E000406821890C4DE26808444BF2037C0127C9
:1022F0000026DFF82880DFF828902978A2EB0C036D
:1023000062457DD017DC7D2A7BD07E2A7AD06FF49F
:1023100037430BE034AB8200F8832000C4812000F7
:10232000003010217415800800005021D21815D0FB
:10233000012A06D12AE0022B70D0042B03D0072BF0
:102340006DD00027F1E06089022806D109B1AA1CEE
:1023500000E000222046FFF78DFDD9E062890A2ABD
:10236000FBD100297ED00822A91C801C47F44AF525
:10237000002878D10126286906F095F80090AA1C5B
:1023800031462046EB68FFF795FDC1E062890F2AD0
:102390006AD1022949D2827B921F1B2A05D20022D0
:1023A00083189B781BB1082A06D304266DE0521CC3
:1023B000D2B2082AF4D3F8E7D0F80A206B6A9A421E
:1023C00001D9022661E001292AD0904950F8022F54
:1023D00041F82A2F42684A608168E960007B06F074
:1023E0006DF82861E9680144491EB1FBF0F0A8824C
:1023F000AE83E86A08B113F43EF54FF4F47302E0DB
:102400004FE06FE072E0824A0020296913F4A8F4DB
:10241000E86260B101202870064613E05EE06CE0DF
:10242000811C0822A81C47F4EDF401262DE0D8F801
:102430000000400305D50122764948462B69F5F78F
:102440000EDB0226D8F8080040031ED5A98A2869A9
:10245000CDE900016F49032250314846EB68F5F79A
:10246000FEDA02E029E026E03BE0D8F8080040036D
:102470000BD5AA1C08216848F5F747DD65490346D6
:102480000122AC314846F5F7EADA286906F00BF884
:102490000090AA1C31462046EB68FFF70BFD07BBF6
:1024A00043E062890A2A33D139B10822A91C801C71
:1024B00047F4A8F418B104265DE700265BE72E7008
:1024C000E86A13F4D8F45148EE6200260369002B41
:1024D000F2D000F12802012198474CE72046FFF78F
:1024E00055FD15E02046FFF7E4FD11E060890B285B
:1024F0000ED12046FFF79BFE0AE06089022807D133
:1025000095F8292095F8281014232046FFF726FD7A
:10251000D8F80800400308D5287800903D490222E9
:10252000BC314846E368F5F79ADA3846BDE8FC87DF
:1025300010B5364A04466FF47F001060AFF2652094
:1025400011615060114600200AF0AFF82F490C20AD
:10255000283141F8244F48710A20087110BD70B528
:102560002A4C06680D4644F82A6F40686060274C84
:10257000114628346818401EB0FBF1F0C4E903523C
:10258000A383A082E06A40B9214A40F25A231C3258
:10259000002013F4E5F3E06210B10120207070BD5B
:1025A0001E4800684003FAD5BDE8704000221C496F
:1025B0001C48F5F7549A70B5144C00252834257042
:1025C000E06A002802D013F456F4E56270BD0F48AB
:1025D00028300078002800D00120704770B58CB0FA
:1025E00004460068009016460D46684606F0EAFE6E
:1025F0000195ADF80A60208AADF81200208DADF883
:102600002800684606F04FFF0CB070BDD083200054
:102610006CAB8200B416800800005021C4812000F9
:10262000B417800800301021F0B58FB016460D4663
:10263000DDE9152182278DF83470149C04278DF86C
:1026400035702CB105248DF837208DF8381000E056
:10265000032401908DF8363001A806F0B3FE0DA8D2
:102660000290ADF80E401DB1ADF81650ADF82C60DB
:1026700001A806F018FF0FB0F0BDFEB50D460646E6
:10268000062409F0E5FE58B10020CDE900058DF8DB
:102690000800024601462B463046FFF7C5FF0446B8
:1026A0002046FEBDF8B50646406ADCB200254078FB
:1026B0008DF800008DF801208DF80240336923B1B8
:1026C0006A460221304698470546A00606D13046A4
:1026D00000F0E2F801463046FFF7CFFF2846F8BD8C
:1026E0002DE9FF5F04464068218925684718E068A6
:1026F0006FF402414FF0010B401809D001281FD0A0
:1027000002281DD04FF0000B04B05846BDE8F09FE2
:1027100060890228F8D1284600F0BEF807466E6AA4
:102720000021206800F0BDF98DF80800717880065E
:1027300000D00120CDE90001228D218A3B465DE0D9
:10274000002003906089042802D0062807D009E001
:102750002B693BB103AA01212846984702E038794A
:102760008DF80C00B8780128CED89DF80C0000F048
:102770003F003F28C8D26E6AF8783070B97871701F
:1027800088462846DDF80C9000F086F809F0FF072F
:102790008DF801708DF802708DF8008082462B69EB
:1027A00000201BB16A46022128469847B90609D085
:1027B000002807DB012805D03C4B4A46002128466B
:1027C00000F03EF9284600F067F80746BA4503D006
:1027D00001462846FFF751FFE0683B46A0F502415D
:1027E000023991D19DF80C008DF8080071788006AF
:1027F00000D00120CDE90001228D218A2846FFF773
:1028000013FF81E73EB50546002400F045F8034676
:1028100000228DF808400094114628460194FFF7E5
:1028200003FF00203EBD70B50C0005461DD02048BA
:102830002060606820BB40F225131E4A0221002060
:1028400013F48EF21C491D4B606230B100220280ED
:102850001B486060206950B112E00878C00704D0BE
:10286000002218491846F5F7FAD8002070BD0879FB
:10287000C00705D01349002264311846F5F7EFD898
:10288000E06808B91048E06000F026F921462846C3
:10289000BDE8704009F009BF08B500210091036947
:1028A0000BB16A4698479DF8000008BDA526810037
:1028B000FFFF0010A1AB8200C48120000030102176
:1028C000E1268100F4178008052881002DE9F05FDA
:1028D0009B46864B0F4680460020596808E0A1F1D0
:1028E00010000568454502D14468BC4202D04968E1
:1028F0009942F4D1D4B29946A609DFF8F4A104F0C4
:102900003F05494505D0047245723AF816104181D9
:102910003CE0774A4B2308321821002013F420F2C0
:1029200078B1C0E90087047245723AF81610418107
:1029300000214161C0E903B154464E46D9F8041064
:102940001AE06C480078C00704D000226A496B483E
:10295000F5F785D80020BDE8F09FA1F1100211F92C
:10296000073C127A920934F8122013FB02F315FB8C
:1029700002F2934202DC4968B142EED10B6800F1E9
:1029800010025A600B6803610A6041610120E2E7AE
:102990002DE9F041554E002775682BE0A5F1100494
:1029A0006089401E00B26081002822DA94F9090093
:1029B000002801DD401E6072207A4D49800931F8FF
:1029C00010006081D4F80CC0BCF1000F11D0C3B26C
:1029D000617A207A61F30503800960F3871394E834
:1029E0000700E047012804D194F90900002800DD20
:1029F00067726D68B542D1D17168B1420ED011F9DC
:102A0000072CA1F11000002A08DCD1E90023536053
:102A1000D1E900210A6013F42EF2EDE7B1420DD1A5
:102A20003448007AC00705D0334900224831334882
:102A3000F5F715D8BDE8F04107F0C1BEBDE8F0815B
:102A40002DE9F0411D4616460F468046002407F04A
:102A5000C2FE00282B4632463946404604D0FFF7D6
:102A600035FF04462046E9E7FFF730FF0028F9D09C
:102A70002349642007F081FE0124F3E730B51B4CA5
:102A800062680BE0A2F110031D68854205D15D6804
:102A90008D4202D10020587230BD5268A242F1D15D
:102AA00030BD30B5114C0023626808E0A2F110037C
:102AB0001D68854202D15D688D4202D05268A242F3
:102AC000F4D10020A24206D0597A61F30500197AA8
:102AD000890961F3871030BD0448016819B941685C
:102AE00009B9006040600120704700003084200078
:102AF000BCAB8200C4812000081A8008003010217D
:102B00009129810010B52DED028B16F0E7FF9FEDA6
:102B1000FE8B53EC182B16F015FE41EC100B16F043
:102B200003FB53EC182B51EC100B17F027F816F0A1
:102B300091FF80B2BDEC028B10BD10B52DED028B64
:102B400016F0CCFF41EC180B9FEDEF0B53EC102B64
:102B500016F0F8FD53EC182B17F010F816F07AFF6A
:102B600080B2E7E7A0F5004000B2704700F50040F2
:102B700080B2704710B5FFF7C5FFA0F5004000B266
:102B800010BD00F5004080B2D7E7FEB51E46822793
:102B9000DDE908358DF804700A9C4E278DF8057024
:102BA0002BB1ADF8085007238DF80A4000E004234C
:102BB0000092ADF8066001AA00F05BFAFEBDFEB51A
:102BC0000D460646062409F043FC58B18DF808006E
:102BD0000020CDE90005024601462B463046FFF7AE
:102BE000D4FF04462046FEBDFEB51E468227DDE921
:102BF00008358DF804700A9C52278DF805702BB1AA
:102C0000ADF8085007238DF80A4000E00423009235
:102C1000ADF8066001AA00F02CFAFEBDFEB50D4627
:102C20000646062409F014FC58B18DF8080000206F
:102C3000CDE90005024601462B463046FFF7D4FF9A
:102C400004462046FEBD1CB582248DF8044056245F
:102C50008DF80540ADF806300092042301AA00F07B
:102C600008FA1CBDFEB582268DF804605826DDE901
:102C700008458DF805608DF80630ADF80740ADF8D1
:102C800009500092072301AA00F0F3F9FEBDF8B540
:102C90000646406A0D004FF0000412D08088ADF85F
:102CA00000008DF80220DFB28DF8037033692BB17C
:102CB0006A4645B10721304698470446B80604D015
:102CC0000CE04088EBE70621F5E74DB101213046E5
:102CD00000F0E6F901463046FFF7A0FF2046F8BDB8
:102CE0000021304600F0DCF901463046FFF767FF6F
:102CF000F4E72DE9FC5F9B460C46064615004FF0B5
:102D000006084FF0000903D04FF007084FF0010903
:102D10001146304600F0C4F9ADF800400BF0FF0753
:102D20008DF802708DF803708246336900201BB164
:102D30006A46414630469847B90609D0002807DB65
:102D4000012805D0724B5A4649463046FFF778FEB7
:102D50002946304600F0A4F90746BA4504D001469A
:102D600030469DB1FFF75AFF6CB1306958B11DB1C3
:102D70002046FFF7C7FE0446ADF80440336901AAB8
:102D80000821304698473846BDE8FC9FFFF717FFFB
:102D9000EAE72DE9F0430446406821892568471891
:102DA000E1680020A1F502414B3985B04FF00108E0
:102DB0000D2979D2DFE801F0071919FD687B7BFD49
:102DC000B8FDD5FDE600608902285AD100212846C9
:102DD0006E6AFFF766FE07460021284600F060F99C
:102DE0000346384641E0012044E081460390608973
:102DF000052802D0072807D009E02B693BB103AAB8
:102E000005212846984702E078798DF80C009DF856
:102E10000C0000F03F003F2833D26E6ACDF81090CE
:102E20002B691BB104AA042128469847BDF810203D
:102E300042B3BDF8121029B37888884201D90846F8
:102E400002E0904200D2104670803879307071886C
:102E500000222846039BFFF74CFF0346E068A0F5DD
:102E600002414C390DD19DF80C008DF80800718895
:102E70008006B8D1CDE90001228D218A2846FFF7CE
:102E800084FE98E07888DFE7608902284BD1012131
:102E900028466E6AFFF705FE07460121284600F026
:102EA000FFF8034638462BE083E0012034E003902E
:102EB0006089052802D0072807D009E02B693BB1BB
:102EC00003AA05212846984702E078798DF80C007E
:102ED0009DF80C0000F03F003F286CD26E6A7988A4
:102EE0000122B180387930702846039BFFF701FF3B
:102EF0000346E068A0F5024150395CD19DF80C0012
:102F00008DF80800B18805E000000000E0FFEF4008
:102F10008F2C81008006C8D1CDE90001228D218A45
:102F20002846FFF761FE46E06189022943D10290FD
:102F30002B691BB102AA032128469847218A238DB9
:102F400082248DF804405424BDF808208DF80540F3
:102F5000ADF8062000932846042301AA00F089F862
:102F600029E06189022926D100902B6913B16A46B4
:102F700028469847BDF80030228D218A2846FFF761
:102F800062FE18E06189022915D102902B691BB1FC
:102F900002AA042128469847BDF80A10BDF8080087
:102FA000CDE90001228D218A00232846FFF75AFE31
:102FB00001E04FF0000805B04046BDE8F0836EB573
:102FC0000646002100F06CF8002503468DF8084005
:102FD00000952A46294630460195FFF7D6FD012186
:102FE000304600F05DF8034600228DF80840009559
:102FF000114630460195FFF7F7FD00206EBD70B514
:103000000C0005461ED02D482060606828BB40F2A9
:1030100052232B4A0621002012F4A2F6294A2A4BF9
:1030200040B10021016081806062284860602069B1
:1030300050B112E01078C00704D00022244918468D
:10304000F4F70DDD002070BD1079C00705D02049D0
:10305000002264311846F4F702DDE06808B91D4823
:10306000E060FFF739FD21462846BDE8704009F0D1
:103070001CBBF0B58DB01D46009016460C46129F45
:10308000684606F09FF90196ADF80A501CB1ADF8FC
:103090001240ADF82870684606F005FA0DB0F0BD94
:1030A00008B50A004FF00001009100D0012103692A
:1030B0000BB16A469847BDF8000008BDFFFF00133A
:1030C000D6AB8200C481200000301021932D8100F6
:1030D000741A8008BF2F8100FEB50446406821891C
:1030E00001264518E068A0F25920B0F5004008D04C
:1030F000012806D002281CD003281AD0002630460A
:10310000FEBD60890428FAD16888ADF80000206807
:10311000036913B16A4609219847E068A0F50241A6
:103120005939ECD16B88228D218A2068FFF78BFDFD
:10313000E5E760890628E2D16988A8888142DED265
:103140000029DCD00028DAD0ADF80810ADF80A006C
:103150002068036913B102AA0A219847E068A0F524
:1031600002415B39CBD1A9886888CDE90001228D65
:10317000218A00232068FFF775FDC0E770B50C00B9
:10318000054604D00C482060606810B10EE00020B5
:1031900070BD0A486060206940B909480079C007DD
:1031A00004D0002207490848F4F759DC2146284694
:1031B000BDE8704009F079BAFFFF0113D9308100F2
:1031C000C4812000281B80080030102110B5A0F514
:1031D000487016F06CFC9FEDF81B53EC112B16F0A9
:1031E000CDFC9FEDF71B53EC112B16F0ABFA9FEDC6
:1031F000F61B53EC112B16F0CDFE16F0FBFB00B2C4
:1032000010BD10B500F5004016F051FC9FEDEA1B13
:1032100053EC112B16F096FA9FEDE91B53EC112B92
:1032200016F0ACFC9FEDEA1B53EC112B16F0D6F90F
:1032300016F010FC80B210BD10B516F038FC9FEDF2
:10324000E61B53EC112B16F099FC16F095F900EEE5
:10325000100A10BDDFEDE20A20EE200ABDEEC00A22
:1032600010EE100A00B270472DE9FF411D46DDE95E
:103270000A63DDE90D744FF0820E8DF804E0DDF88D
:1032800030C04FF0600E8DF805E03BB1ADF80C702A
:103290000B23ADF80AC08DF80E4000E00623009223
:1032A000ADF80650ADF8086001AA00F0D5F904B0F9
:1032B000BDE8F081F0B585B015460E4607460624F8
:1032C00009F0C6F868B10024CDE900548DF810402B
:1032D000029433462246214638460394FFF7C4FF42
:1032E000044605B02046F0BD2DE9FF411D46DDE94D
:1032F0000A63DDE90D744FF0820E8DF804E0DDF80D
:1033000030C04FF0660E8DF805E03BB1ADF80C70A3
:103310000B23ADF80AC08DF80E4000E006230092A2
:10332000ADF80650ADF8086001AA00F095F9BEE7C7
:10333000FEB582268DF804606326DDE908458DF828
:1033400005608DF80630ADF80740ADF809500092E1
:10335000072301AA00F080F9FEBDFEB58226DDE953
:1033600008458DF8046068268DF80560ADF80630D4
:10337000ADF808400092ADF80A50082301AA00F009
:103380006BF9FEBD7CB50546406ADEB2002441887B
:10339000ADF800108188ADF80210C088ADF80400C7
:1033A0008DF806208DF807602B6923B16A46052148
:1033B000284698470446B00607D1284600F063F92E
:1033C000020C81B22846FFF775FF20467CBD2DE92F
:1033D000F04304464068218948F25F224618E068BD
:1033E0000025811A276887B04FF00109904233D039
:1033F00007DCA0F25D20B0F500400CD0012804D11C
:103400002AE003297ED008297DD04FF0000907B0BB
:103410004846BDE8F08360890228F8D1002138468B
:103420007E6AFFF73EFB05953B6980461BB105AA06
:103430000021384698478DF81080B18872885FEA7D
:10344000886000D00120BDF81630CDE90030CDE90C
:103450000221BDF814305BE005956089092802D08F
:103460000B2807D009E03B693BB105AA0421384687
:10347000984702E0707A8DF814009DF8140000F06F
:103480003F003F28C3D2B088A0F54870B0F5964FF2
:10349000BDD806953B691BB106AA0321384698475B
:1034A000BDF818207D6A7AB3BDF81A1061B3B088F0
:1034B000884201D9084602E0904200D21046A88016
:1034C00071886980F088E880307A28709DF814004F
:1034D0008DF80000B5F90630AA88384600F0DCF80F
:1034E000E168A1F502425E3A91D19DF814108DF881
:1034F0001010AA886B88890600D00121050C009560
:10350000039202E00CE022E008E0CDE9011383B26F
:10351000228D218A3846FFF7A7FE78E7B088CEE7EC
:1035200060890228F9D102953B691BB102AA0321E7
:1035300038469847BDF80A10BDF80800CDE90001EB
:10354000228D218A00233846FFF7F2FE5FE760896B
:103550000228E2D1029503953B691BB102AA012121
:1035600038469847BDF90C10BDF80A00CDE90001B6
:10357000BDF80830228D218A3846FFF7EEFE46E777
:1035800030B587B0002405940369054613B105AA38
:1035900000219847BDF81600CDE9000400228DF8FF
:1035A000104002940394BDF8143011462846FFF7EA
:1035B0005BFE07B0002030BD00000000E0FFEF40E0
:1035C0000000000000C0D240000000000000E04009
:1035D0000000000000008940000000000000003FE3
:1035E0000000004770B50C0005461ED0464820601C
:1035F000606828BB4FF4D773444A0821002012F4B6
:10360000AFF3434A434B40B1002101604160606227
:1036100041486060206950B112E01078C00704D0C2
:1036200000223E491846F4F71ADA002070BD1079DE
:10363000C00705D03949002260311846F4F70FDA87
:10364000E06808B93648E060FFF746FA21462846A8
:10365000BDE8704009F029B8F0B58DB01D46009066
:1036600016460C46129F684605F0ACFE0196ADF872
:103670000A501CB1ADF81240ADF82870684605F04C
:1036800012FF0DB0F0BD08B50021009103690BB128
:103690006A469847009808BD2DE9FC471D469046AC
:1036A0000F4681460A9EFFF7EEFFADF80450F5B2D3
:1036B000ADF800708DF80650ADF802808DF8075017
:1036C0000446D9F81030484613B16A460521984798
:1036D000A80605D0134B324600214846FFF7B0F943
:1036E0004846FFF7D0FF81B2A2B20546914203D10E
:1036F000020C230C9A4203D02A0C4846FFF7DAFD4D
:103700002846BDE8FC870000FFFF0313F1AB8200F1
:10371000C481200000301021CF3381007C1B800841
:103720008135810085338100F0B585B015460E46A0
:103730000746062408F08CFE70B10024A8B2CDE93B
:1037400000048DF810400294334622462146384644
:103750000394FFF7C9FD044605B02046F0BD7CB5D3
:103760000546406ADEB200244188ADF8001080882A
:103770008DF80420ADF802008DF805602B6923B1A7
:103780006A460621284698470446B00607D12846CF
:1037900000F0E4F8021481B22846FFF7C5FF204686
:1037A0007CBD2DE9F043044640682189276846180E
:1037B000E06887B0A0F261204FF00108B0F500404A
:1037C00009D003281BD0042819D04FF0000807B0F7
:1037D0004046BDE8F08360890228F8D101213846CF
:1037E0007D6AFFF75EF90646384600F0B7F88DF8B7
:1037F0001060AA886B88B10650E0012150E04FF0BC
:103800000009CDF814906089072802D0092807D054
:1038100009E03B693BB105AA04213846984702E01C
:10382000F0798DF814009DF8140000F03F003F2857
:10383000CDD27088A0F54870B0F5964FC7D87D6A94
:10384000CDF818903B691BB106AA0321384698476A
:10385000BDF8182082B3BDF81A1069B37088884289
:1038600001D9084602E0904200D210466880B08834
:10387000A880B0792870B5F9042069883846059B7E
:1038800000F076F8E168A1F50242643A9FD19DF814
:1038900014108DF81010AA886B8889060029ACD105
:1038A000050C00950392CDE9011383B2228D218A84
:1038B0003846FFF719FD8AE7FFE77088D6E710B5AD
:1038C00086B0044600F04AF80021020CCDE9002140
:1038D00083B28DF8101002910A4620460391FFF73B
:1038E00003FD06B0002010BD70B50C0005461ED0CB
:1038F0003C482060606828BB40F221133A4A062108
:10390000002012F42DF2394A394B40B100210160F8
:103910008180606237486060206950B112E01078A1
:10392000C00704D0002234491846F4F798D8002084
:1039300070BD1079C00705D02F4900226C311846A0
:10394000F4F78DD8E06808B92C48E060FFF7C4F8B8
:1039500021462846BDE8704008F0A7BE08B5002102
:103960000091036913B16A4602219847009808BD87
:103970002DE9FC411D4616460F468046FFF7EEFF37
:10398000ADF80070ADF80260EEB28DF804608DF80D
:1039900005600446D8F8103000201BB16A460621A5
:1039A00040469847B10609D0002807DB012805D01A
:1039B000134B2A4601214046FFF742F84046FFF7E5
:1039C000CDFF81B2A2B20546914203D10214231465
:1039D0009A4203D02A144046FFF7A6FE2846BDE8C7
:1039E000FC810000FFFF061306AC8200C4812000AA
:1039F00000301021A3378100241C8008BF388100CB
:103A00005F3781002DE9FF414FF0820CDDE90A5656
:103A1000DDE90C748DF804C04FF0780C8DF805C00A
:103A2000ADF80850ADF80630ADF80A601FB10923B3
:103A30008DF80C4000E00823009201AA00F0DFF9A5
:103A400004B0BDE8F0812DE9FF411C4615460E4645
:103A50008046062708F0FCFC60B100208DF80C00C1
:103A60000095CDE901400246014633464046FFF746
:103A7000C9FF07463846E3E7FEB58226DDE908457B
:103A80008DF804607C268DF80560ADF80630ADF841
:103A900008400092ADF80A50082301AA00F0AFF9DF
:103AA000FEBD2DE9FF410AAF97E8780082278DF827
:103AB00004707E278DF80570ADF80730ADF8094029
:103AC000ADF80B50ADF80D6000920B2301AA00F089
:103AD00096F9B5E77FB5446A054600266088ADF8DB
:103AE0000000A088ADF80200E088ADF804008DF871
:103AF0000620DCB28DF807402B6923B16A46062107
:103B0000284698470646A0060BD1294602A800F091
:103B10008DF9DDE9024083B2220CA1B22846FFF7FD
:103B200092FF04B0304670BD2DE9F0410446406874
:103B3000218948F279234518E0680127C21A00213B
:103B4000266888B0984270D009DCA0F26D20B0F5EC
:103B500000400CD0092825D00A2804D122E0022AEE
:103B60007ED0042A7DD00027384608B069E76089F6
:103B70000228F9D100213046FEF793FF0546314671
:103B800004A800F053F98DF80C50A80600D00120CD
:103B9000BDF81410BDF812200092CDE90110BDF857
:103BA00010306DE0069160898846092802D00B2804
:103BB00007D009E033693BB106AA05213046984792
:103BC00002E0687A8DF818009DF8180000F03F00B8
:103BD0003F28C9D2CDF81080CDF8148033691BB1CD
:103BE00004AA042130469847706A6A884280BDF86A
:103BF00010C0BCF1000F19D0BDF81230B3B1A988C4
:103C0000994201D9194602E0614500D2614681809E
:103C1000BDF814C0BCF1000F39D0BDF81630ABB3FD
:103C2000E988994204D9194605E032E0A988EEE70F
:103C3000614500D26146C180297A01709DF8181053
:103C40008DF80410C18800918388314602A800F0E5
:103C5000FFF8E168DDE90202A1F50243763B01E0ED
:103C600045E05DE080D19DF818108DF80C108906B4
:103C700000D0012192B2030CCDE90032029183B24F
:103C8000228D218A3046FFF7BDFE6DE7FFE7E98808
:103C9000D1E760890228F8D100213046756AFEF725
:103CA00000FF218A228D6C88AB88ED885FEA806CEA
